{
	"BatchETHSender_flattened.sol": {
		"BulkSendETH": {
			"abi": [
				{
					"inputs": [],
					"stateMutability": "nonpayable",
					"type": "constructor"
				},
				{
					"inputs": [
						{
							"internalType": "address",
							"name": "owner",
							"type": "address"
						}
					],
					"name": "OwnableInvalidOwner",
					"type": "error"
				},
				{
					"inputs": [
						{
							"internalType": "address",
							"name": "account",
							"type": "address"
						}
					],
					"name": "OwnableUnauthorizedAccount",
					"type": "error"
				},
				{
					"anonymous": false,
					"inputs": [
						{
							"indexed": true,
							"internalType": "address",
							"name": "previousOwner",
							"type": "address"
						},
						{
							"indexed": true,
							"internalType": "address",
							"name": "newOwner",
							"type": "address"
						}
					],
					"name": "OwnershipTransferred",
					"type": "event"
				},
				{
					"inputs": [],
					"name": "ethAmount",
					"outputs": [
						{
							"internalType": "uint256",
							"name": "",
							"type": "uint256"
						}
					],
					"stateMutability": "view",
					"type": "function"
				},
				{
					"inputs": [],
					"name": "owner",
					"outputs": [
						{
							"internalType": "address",
							"name": "",
							"type": "address"
						}
					],
					"stateMutability": "view",
					"type": "function"
				},
				{
					"inputs": [],
					"name": "renounceOwnership",
					"outputs": [],
					"stateMutability": "nonpayable",
					"type": "function"
				},
				{
					"inputs": [
						{
							"internalType": "address[]",
							"name": "_to",
							"type": "address[]"
						}
					],
					"name": "sendOutFunds",
					"outputs": [],
					"stateMutability": "payable",
					"type": "function"
				},
				{
					"inputs": [
						{
							"internalType": "uint256",
							"name": "_ethAmount",
							"type": "uint256"
						}
					],
					"name": "setEthAmount",
					"outputs": [],
					"stateMutability": "nonpayable",
					"type": "function"
				},
				{
					"inputs": [
						{
							"internalType": "address",
							"name": "newOwner",
							"type": "address"
						}
					],
					"name": "transferOwnership",
					"outputs": [],
					"stateMutability": "nonpayable",
					"type": "function"
				},
				{
					"inputs": [],
					"name": "withdraw",
					"outputs": [],
					"stateMutability": "nonpayable",
					"type": "function"
				},
				{
					"stateMutability": "payable",
					"type": "receive"
				}
			],
			"devdoc": {
				"errors": {
					"OwnableInvalidOwner(address)": [
						{
							"details": "The owner is not a valid owner account. (eg. `address(0)`)"
						}
					],
					"OwnableUnauthorizedAccount(address)": [
						{
							"details": "The caller account is not authorized to perform an operation."
						}
					]
				},
				"kind": "dev",
				"methods": {
					"owner()": {
						"details": "Returns the address of the current owner."
					},
					"renounceOwnership()": {
						"details": "Leaves the contract without owner. It will not be possible to call `onlyOwner` functions. Can only be called by the current owner. NOTE: Renouncing ownership will leave the contract without an owner, thereby disabling any functionality that is only available to the owner."
					},
					"transferOwnership(address)": {
						"details": "Transfers ownership of the contract to a new account (`newOwner`). Can only be called by the current owner."
					}
				},
				"version": 1
			},
			"evm": {
				"assembly": "    /* \"BatchETHSender_flattened.sol\":4019:5313  contract BulkSendETH is Ownable {... */\n  mstore(0x40, 0x80)\n    /* \"BatchETHSender_flattened.sol\":4084:4095  0.005 ether */\n  0x11c37937e08000\n    /* \"BatchETHSender_flattened.sol\":4057:4095  uint256 public ethAmount = 0.005 ether */\n  0x01\n  sstore\n    /* \"BatchETHSender_flattened.sol\":4102:4138  constructor() Ownable(msg.sender) {} */\n  callvalue\n  dup1\n  iszero\n  tag_1\n  jumpi\n  0x00\n  dup1\n  revert\ntag_1:\n  pop\n    /* \"BatchETHSender_flattened.sol\":4124:4134  msg.sender */\n  caller\n  dup1\n    /* \"BatchETHSender_flattened.sol\":2128:2223  if (initialOwner == address(0)) {... */\n  tag_5\n  jumpi\n    /* \"BatchETHSender_flattened.sol\":2181:2212  OwnableInvalidOwner(address(0)) */\n  mload(0x40)\n  shl(0xe0, 0x1e4fbdf7)\n  dup2\n  mstore\n    /* \"BatchETHSender_flattened.sol\":2209:2210  0 */\n  0x00\n    /* \"BatchETHSender_flattened.sol\":2181:2212  OwnableInvalidOwner(address(0)) */\n  0x04\n  dup3\n  add\n    /* \"#utility.yul\":160:211   */\n  mstore\n    /* \"#utility.yul\":133:151   */\n  0x24\n  add\n    /* \"BatchETHSender_flattened.sol\":2181:2212  OwnableInvalidOwner(address(0)) */\n  mload(0x40)\n  dup1\n  swap2\n  sub\n  swap1\n  revert\n    /* \"BatchETHSender_flattened.sol\":2128:2223  if (initialOwner == address(0)) {... */\ntag_5:\n    /* \"BatchETHSender_flattened.sol\":2232:2264  _transferOwnership(initialOwner) */\n  tag_8\n    /* \"BatchETHSender_flattened.sol\":2251:2263  initialOwner */\n  dup2\n    /* \"BatchETHSender_flattened.sol\":2232:2250  _transferOwnership */\n  tag_9\n    /* \"BatchETHSender_flattened.sol\":2232:2264  _transferOwnership(initialOwner) */\n  jump\t// in\ntag_8:\n    /* \"BatchETHSender_flattened.sol\":2084:2271  constructor(address initialOwner) {... */\n  pop\n    /* \"BatchETHSender_flattened.sol\":4019:5313  contract BulkSendETH is Ownable {... */\n  jump(tag_13)\n    /* \"BatchETHSender_flattened.sol\":3771:3958  function _transferOwnership(address newOwner) internal virtual {... */\ntag_9:\n    /* \"BatchETHSender_flattened.sol\":3844:3860  address oldOwner */\n  0x00\n    /* \"BatchETHSender_flattened.sol\":3863:3869  _owner */\n  dup1\n  sload\n  sub(shl(0xa0, 0x01), 0x01)\n    /* \"BatchETHSender_flattened.sol\":3879:3896  _owner = newOwner */\n  dup4\n  dup2\n  and\n  not(sub(shl(0xa0, 0x01), 0x01))\n  dup4\n  and\n  dup2\n  or\n  dup5\n  sstore\n    /* \"BatchETHSender_flattened.sol\":3911:3951  OwnershipTransferred(oldOwner, newOwner) */\n  mload(0x40)\n    /* \"BatchETHSender_flattened.sol\":3863:3869  _owner */\n  swap2\n  swap1\n  swap3\n  and\n  swap3\n  dup4\n  swap2\n    /* \"BatchETHSender_flattened.sol\":3911:3951  OwnershipTransferred(oldOwner, newOwner) */\n  0x8be0079c531659141344cd1fd0a4f28419497f9722a3daafe3b4186f6b6457e0\n  swap2\n    /* \"BatchETHSender_flattened.sol\":3844:3860  address oldOwner */\n  swap1\n    /* \"BatchETHSender_flattened.sol\":3911:3951  OwnershipTransferred(oldOwner, newOwner) */\n  log3\n    /* \"BatchETHSender_flattened.sol\":3834:3958  {... */\n  pop\n    /* \"BatchETHSender_flattened.sol\":3771:3958  function _transferOwnership(address newOwner) internal virtual {... */\n  pop\n  jump\t// out\n    /* \"#utility.yul\":14:217   */\ntag_13:\n    /* \"BatchETHSender_flattened.sol\":4019:5313  contract BulkSendETH is Ownable {... */\n  dataSize(sub_0)\n  dup1\n  dataOffset(sub_0)\n  0x00\n  codecopy\n  0x00\n  return\nstop\n\nsub_0: assembly {\n        /* \"BatchETHSender_flattened.sol\":4019:5313  contract BulkSendETH is Ownable {... */\n      mstore(0x40, 0x80)\n      jumpi(tag_1, lt(calldatasize, 0x04))\n      shr(0xe0, calldataload(0x00))\n      dup1\n      0xb87c7d43\n      gt\n      tag_10\n      jumpi\n      dup1\n      0xb87c7d43\n      eq\n      tag_6\n      jumpi\n      dup1\n      0xc98166c0\n      eq\n      tag_7\n      jumpi\n      dup1\n      0xd617b738\n      eq\n      tag_8\n      jumpi\n      dup1\n      0xf2fde38b\n      eq\n      tag_9\n      jumpi\n      0x00\n      dup1\n      revert\n    tag_10:\n      dup1\n      0x3ccfd60b\n      eq\n      tag_3\n      jumpi\n      dup1\n      0x715018a6\n      eq\n      tag_4\n      jumpi\n      dup1\n      0x8da5cb5b\n      eq\n      tag_5\n      jumpi\n      0x00\n      dup1\n      revert\n    tag_1:\n      jumpi(tag_2, calldatasize)\n      stop\n    tag_2:\n      0x00\n      dup1\n      revert\n        /* \"BatchETHSender_flattened.sol\":5112:5311  function withdraw() public onlyOwner {... */\n    tag_3:\n      callvalue\n      dup1\n      iszero\n      tag_13\n      jumpi\n      0x00\n      dup1\n      revert\n    tag_13:\n      pop\n      tag_14\n      tag_15\n      jump\t// in\n    tag_14:\n      stop\n        /* \"BatchETHSender_flattened.sol\":3152:3253  function renounceOwnership() public virtual onlyOwner {... */\n    tag_4:\n      callvalue\n      dup1\n      iszero\n      tag_16\n      jumpi\n      0x00\n      dup1\n      revert\n    tag_16:\n      pop\n      tag_14\n      tag_18\n      jump\t// in\n        /* \"BatchETHSender_flattened.sol\":2497:2582  function owner() public view virtual returns (address) {... */\n    tag_5:\n      callvalue\n      dup1\n      iszero\n      tag_19\n      jumpi\n      0x00\n      dup1\n      revert\n    tag_19:\n      pop\n        /* \"BatchETHSender_flattened.sol\":2543:2550  address */\n      0x00\n        /* \"BatchETHSender_flattened.sol\":2569:2575  _owner */\n      sload\n        /* \"BatchETHSender_flattened.sol\":2497:2582  function owner() public view virtual returns (address) {... */\n      mload(0x40)\n      sub(shl(0xa0, 0x01), 0x01)\n        /* \"BatchETHSender_flattened.sol\":2569:2575  _owner */\n      swap1\n      swap2\n      and\n        /* \"#utility.yul\":160:211   */\n      dup2\n      mstore\n        /* \"#utility.yul\":148:150   */\n      0x20\n        /* \"#utility.yul\":133:151   */\n      add\n        /* \"BatchETHSender_flattened.sol\":2497:2582  function owner() public view virtual returns (address) {... */\n    tag_22:\n      mload(0x40)\n      dup1\n      swap2\n      sub\n      swap1\n      return\n        /* \"BatchETHSender_flattened.sol\":4239:4339  function setEthAmount(uint256 _ethAmount) external onlyOwner {... */\n    tag_6:\n      callvalue\n      dup1\n      iszero\n      tag_24\n      jumpi\n      0x00\n      dup1\n      revert\n    tag_24:\n      pop\n      tag_14\n      tag_26\n      calldatasize\n      0x04\n      tag_27\n      jump\t// in\n    tag_26:\n      tag_28\n      jump\t// in\n        /* \"BatchETHSender_flattened.sol\":4057:4095  uint256 public ethAmount = 0.005 ether */\n    tag_7:\n      callvalue\n      dup1\n      iszero\n      tag_29\n      jumpi\n      0x00\n      dup1\n      revert\n    tag_29:\n      pop\n      tag_30\n      sload(0x01)\n      dup2\n      jump\n    tag_30:\n      mload(0x40)\n        /* \"#utility.yul\":553:578   */\n      swap1\n      dup2\n      mstore\n        /* \"#utility.yul\":541:543   */\n      0x20\n        /* \"#utility.yul\":526:544   */\n      add\n        /* \"BatchETHSender_flattened.sol\":4057:4095  uint256 public ethAmount = 0.005 ether */\n      tag_22\n        /* \"#utility.yul\":407:584   */\n      jump\n        /* \"BatchETHSender_flattened.sol\":4383:4942  function sendOutFunds(address[] memory _to) public payable onlyOwner {... */\n    tag_8:\n      tag_14\n      tag_35\n      calldatasize\n      0x04\n      tag_36\n      jump\t// in\n    tag_35:\n      tag_37\n      jump\t// in\n        /* \"BatchETHSender_flattened.sol\":3402:3617  function transferOwnership(address newOwner) public virtual onlyOwner {... */\n    tag_9:\n      callvalue\n      dup1\n      iszero\n      tag_38\n      jumpi\n      0x00\n      dup1\n      revert\n    tag_38:\n      pop\n      tag_14\n      tag_40\n      calldatasize\n      0x04\n      tag_41\n      jump\t// in\n    tag_40:\n      tag_42\n      jump\t// in\n        /* \"BatchETHSender_flattened.sol\":5112:5311  function withdraw() public onlyOwner {... */\n    tag_15:\n        /* \"BatchETHSender_flattened.sol\":2390:2403  _checkOwner() */\n      tag_44\n        /* \"BatchETHSender_flattened.sol\":2390:2401  _checkOwner */\n      tag_45\n        /* \"BatchETHSender_flattened.sol\":2390:2403  _checkOwner() */\n      jump\t// in\n    tag_44:\n        /* \"BatchETHSender_flattened.sol\":5177:5198  address(this).balance */\n      selfbalance\n        /* \"BatchETHSender_flattened.sol\":5216:5227  balance > 0 */\n      dup1\n        /* \"BatchETHSender_flattened.sol\":5208:5257  require(balance > 0, \"No Ether left to withdraw\") */\n      tag_47\n      jumpi\n      mload(0x40)\n      shl(0xe5, 0x461bcd)\n      dup2\n      mstore\n        /* \"#utility.yul\":2418:2420   */\n      0x20\n        /* \"BatchETHSender_flattened.sol\":5208:5257  require(balance > 0, \"No Ether left to withdraw\") */\n      0x04\n      dup3\n      add\n        /* \"#utility.yul\":2400:2421   */\n      mstore\n        /* \"#utility.yul\":2457:2459   */\n      0x19\n        /* \"#utility.yul\":2437:2455   */\n      0x24\n      dup3\n      add\n        /* \"#utility.yul\":2430:2460   */\n      mstore\n        /* \"#utility.yul\":2496:2523   */\n      0x4e6f204574686572206c65667420746f20776974686472617700000000000000\n        /* \"#utility.yul\":2476:2494   */\n      0x44\n      dup3\n      add\n        /* \"#utility.yul\":2469:2524   */\n      mstore\n        /* \"#utility.yul\":2541:2559   */\n      0x64\n      add\n        /* \"BatchETHSender_flattened.sol\":5208:5257  require(balance > 0, \"No Ether left to withdraw\") */\n    tag_48:\n      mload(0x40)\n      dup1\n      swap2\n      sub\n      swap1\n      revert\n    tag_47:\n        /* \"BatchETHSender_flattened.sol\":5267:5304  payable(msg.sender).transfer(balance) */\n      mload(0x40)\n        /* \"BatchETHSender_flattened.sol\":5275:5285  msg.sender */\n      caller\n      swap1\n        /* \"BatchETHSender_flattened.sol\":5267:5304  payable(msg.sender).transfer(balance) */\n      dup3\n      iszero\n      0x08fc\n      mul\n      swap1\n        /* \"BatchETHSender_flattened.sol\":5296:5303  balance */\n      dup4\n      swap1\n        /* \"BatchETHSender_flattened.sol\":5267:5304  payable(msg.sender).transfer(balance) */\n      0x00\n      dup2\n      dup2\n      dup2\n        /* \"BatchETHSender_flattened.sol\":5296:5303  balance */\n      dup6\n        /* \"BatchETHSender_flattened.sol\":5275:5285  msg.sender */\n      dup9\n        /* \"BatchETHSender_flattened.sol\":5267:5304  payable(msg.sender).transfer(balance) */\n      dup9\n      call\n      swap4\n      pop\n      pop\n      pop\n      pop\n      iszero\n      dup1\n      iszero\n      tag_51\n      jumpi\n      returndatasize\n      0x00\n      dup1\n      returndatacopy\n      revert(0x00, returndatasize)\n    tag_51:\n      pop\n        /* \"BatchETHSender_flattened.sol\":5149:5311  {... */\n      pop\n        /* \"BatchETHSender_flattened.sol\":5112:5311  function withdraw() public onlyOwner {... */\n      jump\t// out\n        /* \"BatchETHSender_flattened.sol\":3152:3253  function renounceOwnership() public virtual onlyOwner {... */\n    tag_18:\n        /* \"BatchETHSender_flattened.sol\":2390:2403  _checkOwner() */\n      tag_53\n        /* \"BatchETHSender_flattened.sol\":2390:2401  _checkOwner */\n      tag_45\n        /* \"BatchETHSender_flattened.sol\":2390:2403  _checkOwner() */\n      jump\t// in\n    tag_53:\n        /* \"BatchETHSender_flattened.sol\":3216:3246  _transferOwnership(address(0)) */\n      tag_55\n        /* \"BatchETHSender_flattened.sol\":3243:3244  0 */\n      0x00\n        /* \"BatchETHSender_flattened.sol\":3216:3234  _transferOwnership */\n      tag_56\n        /* \"BatchETHSender_flattened.sol\":3216:3246  _transferOwnership(address(0)) */\n      jump\t// in\n    tag_55:\n        /* \"BatchETHSender_flattened.sol\":3152:3253  function renounceOwnership() public virtual onlyOwner {... */\n      jump\t// out\n        /* \"BatchETHSender_flattened.sol\":4239:4339  function setEthAmount(uint256 _ethAmount) external onlyOwner {... */\n    tag_28:\n        /* \"BatchETHSender_flattened.sol\":2390:2403  _checkOwner() */\n      tag_59\n        /* \"BatchETHSender_flattened.sol\":2390:2401  _checkOwner */\n      tag_45\n        /* \"BatchETHSender_flattened.sol\":2390:2403  _checkOwner() */\n      jump\t// in\n    tag_59:\n        /* \"BatchETHSender_flattened.sol\":4310:4319  ethAmount */\n      0x01\n        /* \"BatchETHSender_flattened.sol\":4310:4332  ethAmount = _ethAmount */\n      sstore\n        /* \"BatchETHSender_flattened.sol\":4239:4339  function setEthAmount(uint256 _ethAmount) external onlyOwner {... */\n      jump\t// out\n        /* \"BatchETHSender_flattened.sol\":4383:4942  function sendOutFunds(address[] memory _to) public payable onlyOwner {... */\n    tag_37:\n        /* \"BatchETHSender_flattened.sol\":2390:2403  _checkOwner() */\n      tag_62\n        /* \"BatchETHSender_flattened.sol\":2390:2401  _checkOwner */\n      tag_45\n        /* \"BatchETHSender_flattened.sol\":2390:2403  _checkOwner() */\n      jump\t// in\n    tag_62:\n        /* \"BatchETHSender_flattened.sol\":4483:4484  0 */\n      0x00\n        /* \"BatchETHSender_flattened.sol\":4470:4473  _to */\n      dup2\n        /* \"BatchETHSender_flattened.sol\":4470:4480  _to.length */\n      mload\n        /* \"BatchETHSender_flattened.sol\":4470:4484  _to.length > 0 */\n      gt\n        /* \"BatchETHSender_flattened.sol\":4462:4510  require(_to.length > 0, \"No addresses provided\") */\n      tag_64\n      jumpi\n      mload(0x40)\n      shl(0xe5, 0x461bcd)\n      dup2\n      mstore\n        /* \"#utility.yul\":2772:2774   */\n      0x20\n        /* \"BatchETHSender_flattened.sol\":4462:4510  require(_to.length > 0, \"No addresses provided\") */\n      0x04\n      dup3\n      add\n        /* \"#utility.yul\":2754:2775   */\n      mstore\n        /* \"#utility.yul\":2811:2813   */\n      0x15\n        /* \"#utility.yul\":2791:2809   */\n      0x24\n      dup3\n      add\n        /* \"#utility.yul\":2784:2814   */\n      mstore\n      shl(0x5a, 0x139bc81859191c995cdcd95cc81c1c9bdd9a591959)\n        /* \"#utility.yul\":2830:2848   */\n      0x44\n      dup3\n      add\n        /* \"#utility.yul\":2823:2874   */\n      mstore\n        /* \"#utility.yul\":2891:2909   */\n      0x64\n      add\n        /* \"BatchETHSender_flattened.sol\":4462:4510  require(_to.length > 0, \"No addresses provided\") */\n      tag_48\n        /* \"#utility.yul\":2570:2915   */\n      jump\n        /* \"BatchETHSender_flattened.sol\":4462:4510  require(_to.length > 0, \"No addresses provided\") */\n    tag_64:\n        /* \"BatchETHSender_flattened.sol\":4566:4569  _to */\n      dup1\n        /* \"BatchETHSender_flattened.sol\":4566:4576  _to.length */\n      mload\n        /* \"BatchETHSender_flattened.sol\":4554:4563  ethAmount */\n      sload(0x01)\n        /* \"BatchETHSender_flattened.sol\":4554:4576  ethAmount * _to.length */\n      tag_67\n      swap2\n      swap1\n      tag_68\n      jump\t// in\n    tag_67:\n        /* \"BatchETHSender_flattened.sol\":4541:4550  msg.value */\n      callvalue\n        /* \"BatchETHSender_flattened.sol\":4541:4576  msg.value >= ethAmount * _to.length */\n      lt\n      iszero\n        /* \"BatchETHSender_flattened.sol\":4520:4640  require(... */\n      tag_69\n      jumpi\n      mload(0x40)\n      shl(0xe5, 0x461bcd)\n      dup2\n      mstore\n        /* \"#utility.yul\":3392:3394   */\n      0x20\n        /* \"BatchETHSender_flattened.sol\":4520:4640  require(... */\n      0x04\n      dup3\n      add\n        /* \"#utility.yul\":3374:3395   */\n      mstore\n        /* \"#utility.yul\":3431:3433   */\n      0x26\n        /* \"#utility.yul\":3411:3429   */\n      0x24\n      dup3\n      add\n        /* \"#utility.yul\":3404:3434   */\n      mstore\n        /* \"#utility.yul\":3470:3504   */\n      0x496e73756666696369656e742062616c616e636520746f2073656e64206f7574\n        /* \"#utility.yul\":3450:3468   */\n      0x44\n      dup3\n      add\n        /* \"#utility.yul\":3443:3505   */\n      mstore\n      shl(0xd0, 0x2066756e6473)\n        /* \"#utility.yul\":3521:3539   */\n      0x64\n      dup3\n      add\n        /* \"#utility.yul\":3514:3550   */\n      mstore\n        /* \"#utility.yul\":3567:3586   */\n      0x84\n      add\n        /* \"BatchETHSender_flattened.sol\":4520:4640  require(... */\n      tag_48\n        /* \"#utility.yul\":3190:3592   */\n      jump\n        /* \"BatchETHSender_flattened.sol\":4520:4640  require(... */\n    tag_69:\n        /* \"BatchETHSender_flattened.sol\":4656:4665  uint256 i */\n      0x00\n        /* \"BatchETHSender_flattened.sol\":4651:4752  for (uint256 i = 0; i < _to.length; i++) {... */\n    tag_72:\n        /* \"BatchETHSender_flattened.sol\":4675:4678  _to */\n      dup2\n        /* \"BatchETHSender_flattened.sol\":4675:4685  _to.length */\n      mload\n        /* \"BatchETHSender_flattened.sol\":4671:4672  i */\n      dup2\n        /* \"BatchETHSender_flattened.sol\":4671:4685  i < _to.length */\n      lt\n        /* \"BatchETHSender_flattened.sol\":4651:4752  for (uint256 i = 0; i < _to.length; i++) {... */\n      iszero\n      tag_73\n      jumpi\n        /* \"BatchETHSender_flattened.sol\":4714:4717  _to */\n      dup2\n        /* \"BatchETHSender_flattened.sol\":4718:4719  i */\n      dup2\n        /* \"BatchETHSender_flattened.sol\":4714:4720  _to[i] */\n      dup2\n      mload\n      dup2\n      lt\n      tag_76\n      jumpi\n      tag_76\n      tag_77\n      jump\t// in\n    tag_76:\n      0x20\n      mul\n      0x20\n      add\n      add\n      mload\n      sub(shl(0xa0, 0x01), 0x01)\n        /* \"BatchETHSender_flattened.sol\":4706:4730  payable(_to[i]).transfer */\n      and\n        /* \"BatchETHSender_flattened.sol\":4706:4741  payable(_to[i]).transfer(ethAmount) */\n      0x08fc\n        /* \"BatchETHSender_flattened.sol\":4731:4740  ethAmount */\n      sload(0x01)\n        /* \"BatchETHSender_flattened.sol\":4706:4741  payable(_to[i]).transfer(ethAmount) */\n      swap1\n      dup2\n      iszero\n      mul\n      swap1\n      mload(0x40)\n      0x00\n      mload(0x40)\n      dup1\n      dup4\n      sub\n      dup2\n      dup6\n      dup9\n      dup9\n      call\n      swap4\n      pop\n      pop\n      pop\n      pop\n      iszero\n      dup1\n      iszero\n      tag_79\n      jumpi\n      returndatasize\n      0x00\n      dup1\n      returndatacopy\n      revert(0x00, returndatasize)\n    tag_79:\n      pop\n        /* \"BatchETHSender_flattened.sol\":4687:4690  i++ */\n      0x01\n      add\n        /* \"BatchETHSender_flattened.sol\":4651:4752  for (uint256 i = 0; i < _to.length; i++) {... */\n      jump(tag_72)\n    tag_73:\n      pop\n        /* \"BatchETHSender_flattened.sol\":4826:4847  address(this).balance */\n      selfbalance\n        /* \"BatchETHSender_flattened.sol\":4861:4872  balance > 0 */\n      dup1\n      iszero\n        /* \"BatchETHSender_flattened.sol\":4857:4936  if (balance > 0) {... */\n      tag_51\n      jumpi\n        /* \"BatchETHSender_flattened.sol\":4888:4925  payable(msg.sender).transfer(balance) */\n      mload(0x40)\n        /* \"BatchETHSender_flattened.sol\":4896:4906  msg.sender */\n      caller\n      swap1\n        /* \"BatchETHSender_flattened.sol\":4888:4925  payable(msg.sender).transfer(balance) */\n      dup3\n      iszero\n      0x08fc\n      mul\n      swap1\n        /* \"BatchETHSender_flattened.sol\":4917:4924  balance */\n      dup4\n      swap1\n        /* \"BatchETHSender_flattened.sol\":4888:4925  payable(msg.sender).transfer(balance) */\n      0x00\n      dup2\n      dup2\n      dup2\n        /* \"BatchETHSender_flattened.sol\":4917:4924  balance */\n      dup6\n        /* \"BatchETHSender_flattened.sol\":4896:4906  msg.sender */\n      dup9\n        /* \"BatchETHSender_flattened.sol\":4888:4925  payable(msg.sender).transfer(balance) */\n      dup9\n      call\n      swap4\n      pop\n      pop\n      pop\n      pop\n      iszero\n      dup1\n      iszero\n      tag_82\n      jumpi\n      returndatasize\n      0x00\n      dup1\n      returndatacopy\n      revert(0x00, returndatasize)\n    tag_82:\n      pop\n        /* \"BatchETHSender_flattened.sol\":4452:4942  {... */\n      pop\n        /* \"BatchETHSender_flattened.sol\":4383:4942  function sendOutFunds(address[] memory _to) public payable onlyOwner {... */\n      pop\n      jump\t// out\n        /* \"BatchETHSender_flattened.sol\":3402:3617  function transferOwnership(address newOwner) public virtual onlyOwner {... */\n    tag_42:\n        /* \"BatchETHSender_flattened.sol\":2390:2403  _checkOwner() */\n      tag_84\n        /* \"BatchETHSender_flattened.sol\":2390:2401  _checkOwner */\n      tag_45\n        /* \"BatchETHSender_flattened.sol\":2390:2403  _checkOwner() */\n      jump\t// in\n    tag_84:\n      sub(shl(0xa0, 0x01), 0x01)\n        /* \"BatchETHSender_flattened.sol\":3486:3508  newOwner == address(0) */\n      dup2\n      and\n        /* \"BatchETHSender_flattened.sol\":3482:3573  if (newOwner == address(0)) {... */\n      tag_86\n      jumpi\n        /* \"BatchETHSender_flattened.sol\":3531:3562  OwnableInvalidOwner(address(0)) */\n      mload(0x40)\n      shl(0xe0, 0x1e4fbdf7)\n      dup2\n      mstore\n        /* \"BatchETHSender_flattened.sol\":3559:3560  0 */\n      0x00\n        /* \"BatchETHSender_flattened.sol\":3531:3562  OwnableInvalidOwner(address(0)) */\n      0x04\n      dup3\n      add\n        /* \"#utility.yul\":160:211   */\n      mstore\n        /* \"#utility.yul\":133:151   */\n      0x24\n      add\n        /* \"BatchETHSender_flattened.sol\":3531:3562  OwnableInvalidOwner(address(0)) */\n      tag_48\n        /* \"#utility.yul\":14:217   */\n      jump\n        /* \"BatchETHSender_flattened.sol\":3482:3573  if (newOwner == address(0)) {... */\n    tag_86:\n        /* \"BatchETHSender_flattened.sol\":3582:3610  _transferOwnership(newOwner) */\n      tag_88\n        /* \"BatchETHSender_flattened.sol\":3601:3609  newOwner */\n      dup2\n        /* \"BatchETHSender_flattened.sol\":3582:3600  _transferOwnership */\n      tag_56\n        /* \"BatchETHSender_flattened.sol\":3582:3610  _transferOwnership(newOwner) */\n      jump\t// in\n    tag_88:\n        /* \"BatchETHSender_flattened.sol\":3402:3617  function transferOwnership(address newOwner) public virtual onlyOwner {... */\n      pop\n      jump\t// out\n        /* \"BatchETHSender_flattened.sol\":2655:2817  function _checkOwner() internal view virtual {... */\n    tag_45:\n        /* \"BatchETHSender_flattened.sol\":2543:2550  address */\n      0x00\n        /* \"BatchETHSender_flattened.sol\":2569:2575  _owner */\n      sload\n      sub(shl(0xa0, 0x01), 0x01)\n      and\n        /* \"BatchETHSender_flattened.sol\":757:767  msg.sender */\n      caller\n        /* \"BatchETHSender_flattened.sol\":2714:2737  owner() != _msgSender() */\n      eq\n        /* \"BatchETHSender_flattened.sol\":2710:2811  if (owner() != _msgSender()) {... */\n      tag_55\n      jumpi\n        /* \"BatchETHSender_flattened.sol\":2760:2800  OwnableUnauthorizedAccount(_msgSender()) */\n      mload(0x40)\n      shl(0xe0, 0x118cdaa7)\n      dup2\n      mstore\n        /* \"BatchETHSender_flattened.sol\":757:767  msg.sender */\n      caller\n        /* \"BatchETHSender_flattened.sol\":2760:2800  OwnableUnauthorizedAccount(_msgSender()) */\n      0x04\n      dup3\n      add\n        /* \"#utility.yul\":160:211   */\n      mstore\n        /* \"#utility.yul\":133:151   */\n      0x24\n      add\n        /* \"BatchETHSender_flattened.sol\":2760:2800  OwnableUnauthorizedAccount(_msgSender()) */\n      tag_48\n        /* \"#utility.yul\":14:217   */\n      jump\n        /* \"BatchETHSender_flattened.sol\":3771:3958  function _transferOwnership(address newOwner) internal virtual {... */\n    tag_56:\n        /* \"BatchETHSender_flattened.sol\":3844:3860  address oldOwner */\n      0x00\n        /* \"BatchETHSender_flattened.sol\":3863:3869  _owner */\n      dup1\n      sload\n      sub(shl(0xa0, 0x01), 0x01)\n        /* \"BatchETHSender_flattened.sol\":3879:3896  _owner = newOwner */\n      dup4\n      dup2\n      and\n      not(sub(shl(0xa0, 0x01), 0x01))\n      dup4\n      and\n      dup2\n      or\n      dup5\n      sstore\n        /* \"BatchETHSender_flattened.sol\":3911:3951  OwnershipTransferred(oldOwner, newOwner) */\n      mload(0x40)\n        /* \"BatchETHSender_flattened.sol\":3863:3869  _owner */\n      swap2\n      swap1\n      swap3\n      and\n      swap3\n      dup4\n      swap2\n        /* \"BatchETHSender_flattened.sol\":3911:3951  OwnershipTransferred(oldOwner, newOwner) */\n      0x8be0079c531659141344cd1fd0a4f28419497f9722a3daafe3b4186f6b6457e0\n      swap2\n        /* \"BatchETHSender_flattened.sol\":3844:3860  address oldOwner */\n      swap1\n        /* \"BatchETHSender_flattened.sol\":3911:3951  OwnershipTransferred(oldOwner, newOwner) */\n      log3\n        /* \"BatchETHSender_flattened.sol\":3834:3958  {... */\n      pop\n        /* \"BatchETHSender_flattened.sol\":3771:3958  function _transferOwnership(address newOwner) internal virtual {... */\n      pop\n      jump\t// out\n        /* \"#utility.yul\":222:402   */\n    tag_27:\n        /* \"#utility.yul\":281:287   */\n      0x00\n        /* \"#utility.yul\":334:336   */\n      0x20\n        /* \"#utility.yul\":322:331   */\n      dup3\n        /* \"#utility.yul\":313:320   */\n      dup5\n        /* \"#utility.yul\":309:332   */\n      sub\n        /* \"#utility.yul\":305:337   */\n      slt\n        /* \"#utility.yul\":302:354   */\n      iszero\n      tag_103\n      jumpi\n        /* \"#utility.yul\":350:351   */\n      0x00\n        /* \"#utility.yul\":347:348   */\n      dup1\n        /* \"#utility.yul\":340:352   */\n      revert\n        /* \"#utility.yul\":302:354   */\n    tag_103:\n      pop\n        /* \"#utility.yul\":373:396   */\n      calldataload\n      swap2\n        /* \"#utility.yul\":222:402   */\n      swap1\n      pop\n      jump\t// out\n        /* \"#utility.yul\":589:716   */\n    tag_98:\n        /* \"#utility.yul\":650:660   */\n      0x4e487b71\n        /* \"#utility.yul\":645:648   */\n      0xe0\n        /* \"#utility.yul\":641:661   */\n      shl\n        /* \"#utility.yul\":638:639   */\n      0x00\n        /* \"#utility.yul\":631:662   */\n      mstore\n        /* \"#utility.yul\":681:685   */\n      0x41\n        /* \"#utility.yul\":678:679   */\n      0x04\n        /* \"#utility.yul\":671:686   */\n      mstore\n        /* \"#utility.yul\":705:709   */\n      0x24\n        /* \"#utility.yul\":702:703   */\n      0x00\n        /* \"#utility.yul\":695:710   */\n      revert\n        /* \"#utility.yul\":721:894   */\n    tag_99:\n        /* \"#utility.yul\":789:809   */\n      dup1\n      calldataload\n      sub(shl(0xa0, 0x01), 0x01)\n        /* \"#utility.yul\":838:869   */\n      dup2\n      and\n        /* \"#utility.yul\":828:870   */\n      dup2\n      eq\n        /* \"#utility.yul\":818:888   */\n      tag_107\n      jumpi\n        /* \"#utility.yul\":884:885   */\n      0x00\n        /* \"#utility.yul\":881:882   */\n      dup1\n        /* \"#utility.yul\":874:886   */\n      revert\n        /* \"#utility.yul\":818:888   */\n    tag_107:\n        /* \"#utility.yul\":721:894   */\n      swap2\n      swap1\n      pop\n      jump\t// out\n        /* \"#utility.yul\":899:2020   */\n    tag_36:\n        /* \"#utility.yul\":983:989   */\n      0x00\n        /* \"#utility.yul\":1014:1016   */\n      0x20\n        /* \"#utility.yul\":1057:1059   */\n      dup1\n        /* \"#utility.yul\":1045:1054   */\n      dup4\n        /* \"#utility.yul\":1036:1043   */\n      dup6\n        /* \"#utility.yul\":1032:1055   */\n      sub\n        /* \"#utility.yul\":1028:1060   */\n      slt\n        /* \"#utility.yul\":1025:1077   */\n      iszero\n      tag_109\n      jumpi\n        /* \"#utility.yul\":1073:1074   */\n      0x00\n        /* \"#utility.yul\":1070:1071   */\n      dup1\n        /* \"#utility.yul\":1063:1075   */\n      revert\n        /* \"#utility.yul\":1025:1077   */\n    tag_109:\n        /* \"#utility.yul\":1113:1122   */\n      dup3\n        /* \"#utility.yul\":1100:1123   */\n      calldataload\n        /* \"#utility.yul\":1142:1160   */\n      0xffffffffffffffff\n        /* \"#utility.yul\":1183:1185   */\n      dup1\n        /* \"#utility.yul\":1175:1181   */\n      dup3\n        /* \"#utility.yul\":1172:1186   */\n      gt\n        /* \"#utility.yul\":1169:1203   */\n      iszero\n      tag_110\n      jumpi\n        /* \"#utility.yul\":1199:1200   */\n      0x00\n        /* \"#utility.yul\":1196:1197   */\n      dup1\n        /* \"#utility.yul\":1189:1201   */\n      revert\n        /* \"#utility.yul\":1169:1203   */\n    tag_110:\n        /* \"#utility.yul\":1237:1243   */\n      dup2\n        /* \"#utility.yul\":1226:1235   */\n      dup6\n        /* \"#utility.yul\":1222:1244   */\n      add\n        /* \"#utility.yul\":1212:1244   */\n      swap2\n      pop\n        /* \"#utility.yul\":1282:1289   */\n      dup6\n        /* \"#utility.yul\":1275:1279   */\n      0x1f\n        /* \"#utility.yul\":1271:1273   */\n      dup4\n        /* \"#utility.yul\":1267:1280   */\n      add\n        /* \"#utility.yul\":1263:1290   */\n      slt\n        /* \"#utility.yul\":1253:1308   */\n      tag_111\n      jumpi\n        /* \"#utility.yul\":1304:1305   */\n      0x00\n        /* \"#utility.yul\":1301:1302   */\n      dup1\n        /* \"#utility.yul\":1294:1306   */\n      revert\n        /* \"#utility.yul\":1253:1308   */\n    tag_111:\n        /* \"#utility.yul\":1340:1342   */\n      dup2\n        /* \"#utility.yul\":1327:1343   */\n      calldataload\n        /* \"#utility.yul\":1362:1364   */\n      dup2\n        /* \"#utility.yul\":1358:1360   */\n      dup2\n        /* \"#utility.yul\":1355:1365   */\n      gt\n        /* \"#utility.yul\":1352:1388   */\n      iszero\n      tag_113\n      jumpi\n        /* \"#utility.yul\":1368:1386   */\n      tag_113\n      tag_98\n      jump\t// in\n    tag_113:\n        /* \"#utility.yul\":1414:1416   */\n      dup1\n        /* \"#utility.yul\":1411:1412   */\n      0x05\n        /* \"#utility.yul\":1407:1417   */\n      shl\n        /* \"#utility.yul\":1446:1448   */\n      0x40\n        /* \"#utility.yul\":1440:1449   */\n      mload\n        /* \"#utility.yul\":1509:1511   */\n      0x1f\n        /* \"#utility.yul\":1505:1512   */\n      not\n        /* \"#utility.yul\":1500:1502   */\n      0x3f\n        /* \"#utility.yul\":1496:1498   */\n      dup4\n        /* \"#utility.yul\":1492:1503   */\n      add\n        /* \"#utility.yul\":1488:1513   */\n      and\n        /* \"#utility.yul\":1480:1486   */\n      dup2\n        /* \"#utility.yul\":1476:1514   */\n      add\n        /* \"#utility.yul\":1564:1570   */\n      dup2\n        /* \"#utility.yul\":1552:1562   */\n      dup2\n        /* \"#utility.yul\":1549:1571   */\n      lt\n        /* \"#utility.yul\":1544:1546   */\n      dup6\n        /* \"#utility.yul\":1532:1542   */\n      dup3\n        /* \"#utility.yul\":1529:1547   */\n      gt\n        /* \"#utility.yul\":1526:1572   */\n      or\n        /* \"#utility.yul\":1523:1595   */\n      iszero\n      tag_115\n      jumpi\n        /* \"#utility.yul\":1575:1593   */\n      tag_115\n      tag_98\n      jump\t// in\n    tag_115:\n        /* \"#utility.yul\":1611:1613   */\n      0x40\n        /* \"#utility.yul\":1604:1626   */\n      mstore\n        /* \"#utility.yul\":1661:1679   */\n      swap2\n      dup3\n      mstore\n        /* \"#utility.yul\":1695:1710   */\n      dup5\n      dup3\n      add\n      swap3\n      pop\n        /* \"#utility.yul\":1737:1748   */\n      dup4\n      dup2\n      add\n        /* \"#utility.yul\":1733:1753   */\n      dup6\n      add\n      swap2\n        /* \"#utility.yul\":1765:1784   */\n      dup9\n      dup4\n      gt\n        /* \"#utility.yul\":1762:1801   */\n      iszero\n      tag_116\n      jumpi\n        /* \"#utility.yul\":1797:1798   */\n      0x00\n        /* \"#utility.yul\":1794:1795   */\n      dup1\n        /* \"#utility.yul\":1787:1799   */\n      revert\n        /* \"#utility.yul\":1762:1801   */\n    tag_116:\n        /* \"#utility.yul\":1821:1832   */\n      swap4\n      dup6\n      add\n      swap4\n        /* \"#utility.yul\":1841:1989   */\n    tag_117:\n        /* \"#utility.yul\":1857:1863   */\n      dup3\n        /* \"#utility.yul\":1852:1855   */\n      dup6\n        /* \"#utility.yul\":1849:1864   */\n      lt\n        /* \"#utility.yul\":1841:1989   */\n      iszero\n      tag_119\n      jumpi\n        /* \"#utility.yul\":1923:1946   */\n      tag_120\n        /* \"#utility.yul\":1942:1945   */\n      dup6\n        /* \"#utility.yul\":1923:1946   */\n      tag_99\n      jump\t// in\n    tag_120:\n        /* \"#utility.yul\":1911:1947   */\n      dup5\n      mstore\n        /* \"#utility.yul\":1874:1886   */\n      swap4\n      dup6\n      add\n      swap4\n        /* \"#utility.yul\":1967:1979   */\n      swap3\n      dup6\n      add\n      swap3\n        /* \"#utility.yul\":1841:1989   */\n      jump(tag_117)\n    tag_119:\n        /* \"#utility.yul\":2008:2014   */\n      swap9\n        /* \"#utility.yul\":899:2020   */\n      swap8\n      pop\n      pop\n      pop\n      pop\n      pop\n      pop\n      pop\n      pop\n      jump\t// out\n        /* \"#utility.yul\":2025:2211   */\n    tag_41:\n        /* \"#utility.yul\":2084:2090   */\n      0x00\n        /* \"#utility.yul\":2137:2139   */\n      0x20\n        /* \"#utility.yul\":2125:2134   */\n      dup3\n        /* \"#utility.yul\":2116:2123   */\n      dup5\n        /* \"#utility.yul\":2112:2135   */\n      sub\n        /* \"#utility.yul\":2108:2140   */\n      slt\n        /* \"#utility.yul\":2105:2157   */\n      iszero\n      tag_122\n      jumpi\n        /* \"#utility.yul\":2153:2154   */\n      0x00\n        /* \"#utility.yul\":2150:2151   */\n      dup1\n        /* \"#utility.yul\":2143:2155   */\n      revert\n        /* \"#utility.yul\":2105:2157   */\n    tag_122:\n        /* \"#utility.yul\":2176:2205   */\n      tag_123\n        /* \"#utility.yul\":2195:2204   */\n      dup3\n        /* \"#utility.yul\":2176:2205   */\n      tag_99\n      jump\t// in\n    tag_123:\n        /* \"#utility.yul\":2166:2205   */\n      swap4\n        /* \"#utility.yul\":2025:2211   */\n      swap3\n      pop\n      pop\n      pop\n      jump\t// out\n        /* \"#utility.yul\":2920:3185   */\n    tag_68:\n        /* \"#utility.yul\":2993:3002   */\n      dup1\n      dup3\n      mul\n        /* \"#utility.yul\":3024:3033   */\n      dup2\n      iszero\n        /* \"#utility.yul\":3041:3056   */\n      dup3\n      dup3\n      div\n        /* \"#utility.yul\":3035:3057   */\n      dup5\n      eq\n        /* \"#utility.yul\":3021:3058   */\n      or\n        /* \"#utility.yul\":3011:3179   */\n      tag_127\n      jumpi\n        /* \"#utility.yul\":3101:3111   */\n      0x4e487b71\n        /* \"#utility.yul\":3096:3099   */\n      0xe0\n        /* \"#utility.yul\":3092:3112   */\n      shl\n        /* \"#utility.yul\":3089:3090   */\n      0x00\n        /* \"#utility.yul\":3082:3113   */\n      mstore\n        /* \"#utility.yul\":3136:3140   */\n      0x11\n        /* \"#utility.yul\":3133:3134   */\n      0x04\n        /* \"#utility.yul\":3126:3141   */\n      mstore\n        /* \"#utility.yul\":3164:3168   */\n      0x24\n        /* \"#utility.yul\":3161:3162   */\n      0x00\n        /* \"#utility.yul\":3154:3169   */\n      revert\n        /* \"#utility.yul\":3011:3179   */\n    tag_127:\n        /* \"#utility.yul\":2920:3185   */\n      swap3\n      swap2\n      pop\n      pop\n      jump\t// out\n        /* \"#utility.yul\":3597:3724   */\n    tag_77:\n        /* \"#utility.yul\":3658:3668   */\n      0x4e487b71\n        /* \"#utility.yul\":3653:3656   */\n      0xe0\n        /* \"#utility.yul\":3649:3669   */\n      shl\n        /* \"#utility.yul\":3646:3647   */\n      0x00\n        /* \"#utility.yul\":3639:3670   */\n      mstore\n        /* \"#utility.yul\":3689:3693   */\n      0x32\n        /* \"#utility.yul\":3686:3687   */\n      0x04\n        /* \"#utility.yul\":3679:3694   */\n      mstore\n        /* \"#utility.yul\":3713:3717   */\n      0x24\n        /* \"#utility.yul\":3710:3711   */\n      0x00\n        /* \"#utility.yul\":3703:3718   */\n      revert\n\n    auxdata: 0xa264697066735822122065f83f61718e93a1eab4d037521f444d8727c083007d86ae00ae9f8125d8132964736f6c63430008170033\n}\n",
				"bytecode": {
					"linkReferences": {},
					"object": "60806040526611c37937e0800060015534801561001b57600080fd5b50338061004257604051631e4fbdf760e01b81526000600482015260240160405180910390fd5b61004b81610051565b506100a1565b600080546001600160a01b038381166001600160a01b0319831681178455604051919092169283917f8be0079c531659141344cd1fd0a4f28419497f9722a3daafe3b4186f6b6457e09190a35050565b6105c2806100b06000396000f3fe6080604052600436106100745760003560e01c8063b87c7d431161004e578063b87c7d43146100d9578063c98166c0146100f9578063d617b7381461011d578063f2fde38b1461013057600080fd5b80633ccfd60b14610080578063715018a6146100975780638da5cb5b146100ac57600080fd5b3661007b57005b600080fd5b34801561008c57600080fd5b50610095610150565b005b3480156100a357600080fd5b506100956101dc565b3480156100b857600080fd5b506000546040516001600160a01b0390911681526020015b60405180910390f35b3480156100e557600080fd5b506100956100f4366004610419565b6101f0565b34801561010557600080fd5b5061010f60015481565b6040519081526020016100d0565b61009561012b366004610464565b6101fd565b34801561013c57600080fd5b5061009561014b366004610529565b61035e565b61015861039c565b47806101ab5760405162461bcd60e51b815260206004820152601960248201527f4e6f204574686572206c65667420746f2077697468647261770000000000000060448201526064015b60405180910390fd5b604051339082156108fc029083906000818181858888f193505050501580156101d8573d6000803e3d6000fd5b5050565b6101e461039c565b6101ee60006103c9565b565b6101f861039c565b600155565b61020561039c565b600081511161024e5760405162461bcd60e51b8152602060048201526015602482015274139bc81859191c995cdcd95cc81c1c9bdd9a591959605a1b60448201526064016101a2565b805160015461025d919061054b565b3410156102bb5760405162461bcd60e51b815260206004820152602660248201527f496e73756666696369656e742062616c616e636520746f2073656e64206f75746044820152652066756e647360d01b60648201526084016101a2565b60005b8151811015610324578181815181106102d9576102d9610576565b60200260200101516001600160a01b03166108fc6001549081150290604051600060405180830381858888f1935050505015801561031b573d6000803e3d6000fd5b506001016102be565b504780156101d857604051339082156108fc029083906000818181858888f19350505050158015610359573d6000803e3d6000fd5b505050565b61036661039c565b6001600160a01b03811661039057604051631e4fbdf760e01b8152600060048201526024016101a2565b610399816103c9565b50565b6000546001600160a01b031633146101ee5760405163118cdaa760e01b81523360048201526024016101a2565b600080546001600160a01b038381166001600160a01b0319831681178455604051919092169283917f8be0079c531659141344cd1fd0a4f28419497f9722a3daafe3b4186f6b6457e09190a35050565b60006020828403121561042b57600080fd5b5035919050565b634e487b7160e01b600052604160045260246000fd5b80356001600160a01b038116811461045f57600080fd5b919050565b6000602080838503121561047757600080fd5b823567ffffffffffffffff8082111561048f57600080fd5b818501915085601f8301126104a357600080fd5b8135818111156104b5576104b5610432565b8060051b604051601f19603f830116810181811085821117156104da576104da610432565b6040529182528482019250838101850191888311156104f857600080fd5b938501935b8285101561051d5761050e85610448565b845293850193928501926104fd565b98975050505050505050565b60006020828403121561053b57600080fd5b61054482610448565b9392505050565b808202811582820484141761057057634e487b7160e01b600052601160045260246000fd5b92915050565b634e487b7160e01b600052603260045260246000fdfea264697066735822122065f83f61718e93a1eab4d037521f444d8727c083007d86ae00ae9f8125d8132964736f6c63430008170033",
					"opcodes": "PUSH1 0x80 PUSH1 0x40 MSTORE PUSH7 0x11C37937E08000 PUSH1 0x1 SSTORE CALLVALUE DUP1 ISZERO PUSH2 0x1B JUMPI PUSH1 0x0 DUP1 REVERT JUMPDEST POP CALLER DUP1 PUSH2 0x42 JUMPI PUSH1 0x40 MLOAD PUSH4 0x1E4FBDF7 PUSH1 0xE0 SHL DUP2 MSTORE PUSH1 0x0 PUSH1 0x4 DUP3 ADD MSTORE PUSH1 0x24 ADD PUSH1 0x40 MLOAD DUP1 SWAP2 SUB SWAP1 REVERT JUMPDEST PUSH2 0x4B DUP2 PUSH2 0x51 JUMP JUMPDEST POP PUSH2 0xA1 JUMP JUMPDEST PUSH1 0x0 DUP1 SLOAD PUSH1 0x1 PUSH1 0x1 PUSH1 0xA0 SHL SUB DUP4 DUP2 AND PUSH1 0x1 PUSH1 0x1 PUSH1 0xA0 SHL SUB NOT DUP4 AND DUP2 OR DUP5 SSTORE PUSH1 0x40 MLOAD SWAP2 SWAP1 SWAP3 AND SWAP3 DUP4 SWAP2 PUSH32 0x8BE0079C531659141344CD1FD0A4F28419497F9722A3DAAFE3B4186F6B6457E0 SWAP2 SWAP1 LOG3 POP POP JUMP JUMPDEST PUSH2 0x5C2 DUP1 PUSH2 0xB0 PUSH1 0x0 CODECOPY PUSH1 0x0 RETURN INVALID PUSH1 0x80 PUSH1 0x40 MSTORE PUSH1 0x4 CALLDATASIZE LT PUSH2 0x74 JUMPI PUSH1 0x0 CALLDATALOAD PUSH1 0xE0 SHR DUP1 PUSH4 0xB87C7D43 GT PUSH2 0x4E JUMPI DUP1 PUSH4 0xB87C7D43 EQ PUSH2 0xD9 JUMPI DUP1 PUSH4 0xC98166C0 EQ PUSH2 0xF9 JUMPI DUP1 PUSH4 0xD617B738 EQ PUSH2 0x11D JUMPI DUP1 PUSH4 0xF2FDE38B EQ PUSH2 0x130 JUMPI PUSH1 0x0 DUP1 REVERT JUMPDEST DUP1 PUSH4 0x3CCFD60B EQ PUSH2 0x80 JUMPI DUP1 PUSH4 0x715018A6 EQ PUSH2 0x97 JUMPI DUP1 PUSH4 0x8DA5CB5B EQ PUSH2 0xAC JUMPI PUSH1 0x0 DUP1 REVERT JUMPDEST CALLDATASIZE PUSH2 0x7B JUMPI STOP JUMPDEST PUSH1 0x0 DUP1 REVERT JUMPDEST CALLVALUE DUP1 ISZERO PUSH2 0x8C JUMPI PUSH1 0x0 DUP1 REVERT JUMPDEST POP PUSH2 0x95 PUSH2 0x150 JUMP JUMPDEST STOP JUMPDEST CALLVALUE DUP1 ISZERO PUSH2 0xA3 JUMPI PUSH1 0x0 DUP1 REVERT JUMPDEST POP PUSH2 0x95 PUSH2 0x1DC JUMP JUMPDEST CALLVALUE DUP1 ISZERO PUSH2 0xB8 JUMPI PUSH1 0x0 DUP1 REVERT JUMPDEST POP PUSH1 0x0 SLOAD PUSH1 0x40 MLOAD PUSH1 0x1 PUSH1 0x1 PUSH1 0xA0 SHL SUB SWAP1 SWAP2 AND DUP2 MSTORE PUSH1 0x20 ADD JUMPDEST PUSH1 0x40 MLOAD DUP1 SWAP2 SUB SWAP1 RETURN JUMPDEST CALLVALUE DUP1 ISZERO PUSH2 0xE5 JUMPI PUSH1 0x0 DUP1 REVERT JUMPDEST POP PUSH2 0x95 PUSH2 0xF4 CALLDATASIZE PUSH1 0x4 PUSH2 0x419 JUMP JUMPDEST PUSH2 0x1F0 JUMP JUMPDEST CALLVALUE DUP1 ISZERO PUSH2 0x105 JUMPI PUSH1 0x0 DUP1 REVERT JUMPDEST POP PUSH2 0x10F PUSH1 0x1 SLOAD DUP2 JUMP JUMPDEST PUSH1 0x40 MLOAD SWAP1 DUP2 MSTORE PUSH1 0x20 ADD PUSH2 0xD0 JUMP JUMPDEST PUSH2 0x95 PUSH2 0x12B CALLDATASIZE PUSH1 0x4 PUSH2 0x464 JUMP JUMPDEST PUSH2 0x1FD JUMP JUMPDEST CALLVALUE DUP1 ISZERO PUSH2 0x13C JUMPI PUSH1 0x0 DUP1 REVERT JUMPDEST POP PUSH2 0x95 PUSH2 0x14B CALLDATASIZE PUSH1 0x4 PUSH2 0x529 JUMP JUMPDEST PUSH2 0x35E JUMP JUMPDEST PUSH2 0x158 PUSH2 0x39C JUMP JUMPDEST SELFBALANCE DUP1 PUSH2 0x1AB JUMPI PUSH1 0x40 MLOAD PUSH3 0x461BCD PUSH1 0xE5 SHL DUP2 MSTORE PUSH1 0x20 PUSH1 0x4 DUP3 ADD MSTORE PUSH1 0x19 PUSH1 0x24 DUP3 ADD MSTORE PUSH32 0x4E6F204574686572206C65667420746F20776974686472617700000000000000 PUSH1 0x44 DUP3 ADD MSTORE PUSH1 0x64 ADD JUMPDEST PUSH1 0x40 MLOAD DUP1 SWAP2 SUB SWAP1 REVERT JUMPDEST PUSH1 0x40 MLOAD CALLER SWAP1 DUP3 ISZERO PUSH2 0x8FC MUL SWAP1 DUP4 SWAP1 PUSH1 0x0 DUP2 DUP2 DUP2 DUP6 DUP9 DUP9 CALL SWAP4 POP POP POP POP ISZERO DUP1 ISZERO PUSH2 0x1D8 JUMPI RETURNDATASIZE PUSH1 0x0 DUP1 RETURNDATACOPY RETURNDATASIZE PUSH1 0x0 REVERT JUMPDEST POP POP JUMP JUMPDEST PUSH2 0x1E4 PUSH2 0x39C JUMP JUMPDEST PUSH2 0x1EE PUSH1 0x0 PUSH2 0x3C9 JUMP JUMPDEST JUMP JUMPDEST PUSH2 0x1F8 PUSH2 0x39C JUMP JUMPDEST PUSH1 0x1 SSTORE JUMP JUMPDEST PUSH2 0x205 PUSH2 0x39C JUMP JUMPDEST PUSH1 0x0 DUP2 MLOAD GT PUSH2 0x24E JUMPI PUSH1 0x40 MLOAD PUSH3 0x461BCD PUSH1 0xE5 SHL DUP2 MSTORE PUSH1 0x20 PUSH1 0x4 DUP3 ADD MSTORE PUSH1 0x15 PUSH1 0x24 DUP3 ADD MSTORE PUSH21 0x139BC81859191C995CDCD95CC81C1C9BDD9A591959 PUSH1 0x5A SHL PUSH1 0x44 DUP3 ADD MSTORE PUSH1 0x64 ADD PUSH2 0x1A2 JUMP JUMPDEST DUP1 MLOAD PUSH1 0x1 SLOAD PUSH2 0x25D SWAP2 SWAP1 PUSH2 0x54B JUMP JUMPDEST CALLVALUE LT ISZERO PUSH2 0x2BB JUMPI PUSH1 0x40 MLOAD PUSH3 0x461BCD PUSH1 0xE5 SHL DUP2 MSTORE PUSH1 0x20 PUSH1 0x4 DUP3 ADD MSTORE PUSH1 0x26 PUSH1 0x24 DUP3 ADD MSTORE PUSH32 0x496E73756666696369656E742062616C616E636520746F2073656E64206F7574 PUSH1 0x44 DUP3 ADD MSTORE PUSH6 0x2066756E6473 PUSH1 0xD0 SHL PUSH1 0x64 DUP3 ADD MSTORE PUSH1 0x84 ADD PUSH2 0x1A2 JUMP JUMPDEST PUSH1 0x0 JUMPDEST DUP2 MLOAD DUP2 LT ISZERO PUSH2 0x324 JUMPI DUP2 DUP2 DUP2 MLOAD DUP2 LT PUSH2 0x2D9 JUMPI PUSH2 0x2D9 PUSH2 0x576 JUMP JUMPDEST PUSH1 0x20 MUL PUSH1 0x20 ADD ADD MLOAD PUSH1 0x1 PUSH1 0x1 PUSH1 0xA0 SHL SUB AND PUSH2 0x8FC PUSH1 0x1 SLOAD SWAP1 DUP2 ISZERO MUL SWAP1 PUSH1 0x40 MLOAD PUSH1 0x0 PUSH1 0x40 MLOAD DUP1 DUP4 SUB DUP2 DUP6 DUP9 DUP9 CALL SWAP4 POP POP POP POP ISZERO DUP1 ISZERO PUSH2 0x31B JUMPI RETURNDATASIZE PUSH1 0x0 DUP1 RETURNDATACOPY RETURNDATASIZE PUSH1 0x0 REVERT JUMPDEST POP PUSH1 0x1 ADD PUSH2 0x2BE JUMP JUMPDEST POP SELFBALANCE DUP1 ISZERO PUSH2 0x1D8 JUMPI PUSH1 0x40 MLOAD CALLER SWAP1 DUP3 ISZERO PUSH2 0x8FC MUL SWAP1 DUP4 SWAP1 PUSH1 0x0 DUP2 DUP2 DUP2 DUP6 DUP9 DUP9 CALL SWAP4 POP POP POP POP ISZERO DUP1 ISZERO PUSH2 0x359 JUMPI RETURNDATASIZE PUSH1 0x0 DUP1 RETURNDATACOPY RETURNDATASIZE PUSH1 0x0 REVERT JUMPDEST POP POP POP JUMP JUMPDEST PUSH2 0x366 PUSH2 0x39C JUMP JUMPDEST PUSH1 0x1 PUSH1 0x1 PUSH1 0xA0 SHL SUB DUP2 AND PUSH2 0x390 JUMPI PUSH1 0x40 MLOAD PUSH4 0x1E4FBDF7 PUSH1 0xE0 SHL DUP2 MSTORE PUSH1 0x0 PUSH1 0x4 DUP3 ADD MSTORE PUSH1 0x24 ADD PUSH2 0x1A2 JUMP JUMPDEST PUSH2 0x399 DUP2 PUSH2 0x3C9 JUMP JUMPDEST POP JUMP JUMPDEST PUSH1 0x0 SLOAD PUSH1 0x1 PUSH1 0x1 PUSH1 0xA0 SHL SUB AND CALLER EQ PUSH2 0x1EE JUMPI PUSH1 0x40 MLOAD PUSH4 0x118CDAA7 PUSH1 0xE0 SHL DUP2 MSTORE CALLER PUSH1 0x4 DUP3 ADD MSTORE PUSH1 0x24 ADD PUSH2 0x1A2 JUMP JUMPDEST PUSH1 0x0 DUP1 SLOAD PUSH1 0x1 PUSH1 0x1 PUSH1 0xA0 SHL SUB DUP4 DUP2 AND PUSH1 0x1 PUSH1 0x1 PUSH1 0xA0 SHL SUB NOT DUP4 AND DUP2 OR DUP5 SSTORE PUSH1 0x40 MLOAD SWAP2 SWAP1 SWAP3 AND SWAP3 DUP4 SWAP2 PUSH32 0x8BE0079C531659141344CD1FD0A4F28419497F9722A3DAAFE3B4186F6B6457E0 SWAP2 SWAP1 LOG3 POP POP JUMP JUMPDEST PUSH1 0x0 PUSH1 0x20 DUP3 DUP5 SUB SLT ISZERO PUSH2 0x42B JUMPI PUSH1 0x0 DUP1 REVERT JUMPDEST POP CALLDATALOAD SWAP2 SWAP1 POP JUMP JUMPDEST PUSH4 0x4E487B71 PUSH1 0xE0 SHL PUSH1 0x0 MSTORE PUSH1 0x41 PUSH1 0x4 MSTORE PUSH1 0x24 PUSH1 0x0 REVERT JUMPDEST DUP1 CALLDATALOAD PUSH1 0x1 PUSH1 0x1 PUSH1 0xA0 SHL SUB DUP2 AND DUP2 EQ PUSH2 0x45F JUMPI PUSH1 0x0 DUP1 REVERT JUMPDEST SWAP2 SWAP1 POP JUMP JUMPDEST PUSH1 0x0 PUSH1 0x20 DUP1 DUP4 DUP6 SUB SLT ISZERO PUSH2 0x477 JUMPI PUSH1 0x0 DUP1 REVERT JUMPDEST DUP3 CALLDATALOAD PUSH8 0xFFFFFFFFFFFFFFFF DUP1 DUP3 GT ISZERO PUSH2 0x48F JUMPI PUSH1 0x0 DUP1 REVERT JUMPDEST DUP2 DUP6 ADD SWAP2 POP DUP6 PUSH1 0x1F DUP4 ADD SLT PUSH2 0x4A3 JUMPI PUSH1 0x0 DUP1 REVERT JUMPDEST DUP2 CALLDATALOAD DUP2 DUP2 GT ISZERO PUSH2 0x4B5 JUMPI PUSH2 0x4B5 PUSH2 0x432 JUMP JUMPDEST DUP1 PUSH1 0x5 SHL PUSH1 0x40 MLOAD PUSH1 0x1F NOT PUSH1 0x3F DUP4 ADD AND DUP2 ADD DUP2 DUP2 LT DUP6 DUP3 GT OR ISZERO PUSH2 0x4DA JUMPI PUSH2 0x4DA PUSH2 0x432 JUMP JUMPDEST PUSH1 0x40 MSTORE SWAP2 DUP3 MSTORE DUP5 DUP3 ADD SWAP3 POP DUP4 DUP2 ADD DUP6 ADD SWAP2 DUP9 DUP4 GT ISZERO PUSH2 0x4F8 JUMPI PUSH1 0x0 DUP1 REVERT JUMPDEST SWAP4 DUP6 ADD SWAP4 JUMPDEST DUP3 DUP6 LT ISZERO PUSH2 0x51D JUMPI PUSH2 0x50E DUP6 PUSH2 0x448 JUMP JUMPDEST DUP5 MSTORE SWAP4 DUP6 ADD SWAP4 SWAP3 DUP6 ADD SWAP3 PUSH2 0x4FD JUMP JUMPDEST SWAP9 SWAP8 POP POP POP POP POP POP POP POP JUMP JUMPDEST PUSH1 0x0 PUSH1 0x20 DUP3 DUP5 SUB SLT ISZERO PUSH2 0x53B JUMPI PUSH1 0x0 DUP1 REVERT JUMPDEST PUSH2 0x544 DUP3 PUSH2 0x448 JUMP JUMPDEST SWAP4 SWAP3 POP POP POP JUMP JUMPDEST DUP1 DUP3 MUL DUP2 ISZERO DUP3 DUP3 DIV DUP5 EQ OR PUSH2 0x570 JUMPI PUSH4 0x4E487B71 PUSH1 0xE0 SHL PUSH1 0x0 MSTORE PUSH1 0x11 PUSH1 0x4 MSTORE PUSH1 0x24 PUSH1 0x0 REVERT JUMPDEST SWAP3 SWAP2 POP POP JUMP JUMPDEST PUSH4 0x4E487B71 PUSH1 0xE0 SHL PUSH1 0x0 MSTORE PUSH1 0x32 PUSH1 0x4 MSTORE PUSH1 0x24 PUSH1 0x0 REVERT INVALID LOG2 PUSH5 0x6970667358 0x22 SLT KECCAK256 PUSH6 0xF83F61718E93 LOG1 0xEA 0xB4 0xD0 CALLDATACOPY MSTORE 0x1F DIFFICULTY 0x4D DUP8 0x27 0xC0 DUP4 STOP PUSH30 0x86AE00AE9F8125D8132964736F6C63430008170033000000000000000000 "
				},
				"gasEstimates": {
					"creation": {
						"codeDepositCost": "294800",
						"executionCost": "48306",
						"totalCost": "343106"
					},
					"external": {
						"ethAmount()": "2317",
						"owner()": "2335",
						"renounceOwnership()": "infinite",
						"sendOutFunds(address[])": "infinite",
						"setEthAmount(uint256)": "24488",
						"transferOwnership(address)": "28399",
						"withdraw()": "infinite"
					}
				},
				"methodIdentifiers": {
					"ethAmount()": "c98166c0",
					"owner()": "8da5cb5b",
					"renounceOwnership()": "715018a6",
					"sendOutFunds(address[])": "d617b738",
					"setEthAmount(uint256)": "b87c7d43",
					"transferOwnership(address)": "f2fde38b",
					"withdraw()": "3ccfd60b"
				}
			},
			"storageLayout": {
				"storage": [
					{
						"astId": 27,
						"contract": "BatchETHSender_flattened.sol:BulkSendETH",
						"label": "_owner",
						"offset": 0,
						"slot": "0",
						"type": "t_address"
					},
					{
						"astId": 172,
						"contract": "BatchETHSender_flattened.sol:BulkSendETH",
						"label": "ethAmount",
						"offset": 0,
						"slot": "1",
						"type": "t_uint256"
					}
				],
				"types": {
					"t_address": {
						"encoding": "inplace",
						"label": "address",
						"numberOfBytes": "20"
					},
					"t_uint256": {
						"encoding": "inplace",
						"label": "uint256",
						"numberOfBytes": "32"
					}
				}
			},
			"userdoc": {
				"kind": "user",
				"methods": {},
				"version": 1
			}
		}
	}
}